S01100005350495F536C6176652E73726563CD
S11300000C942A000C943F000C943F000C943F0085
S11300100C943F000C943F000C943F000C943F0060
S11300200C943F000C943F000C943F000C943F0050
S11300300C943F000C943F000C943F000C943F0040
S11300400C943F000C943F000C943F000C943F0030
S11300500C943F0011241FBECFE5D8E0DEBFCDBF16
S113006010E0A0E6B0E0E8EDF4E002C005900D92E7
S1130070A236B107D9F70E942C020C946A020C94A0
S11300800000843008F072C0683008F06FC041305E
S1130090A1F5813089F028F08230C9F0833011F164
S11300A008952AB381E090E002C0880F991F6A95F1
S11300B0E2F7822B8ABB089527B381E090E002C067
S11300C0880F991F6A95E2F7822B87BB089524B3A2
S11300D081E090E002C0880F991F6A95E2F7822BB5
S11300E084BB089521B381E090E002C0880F991F7A
S11300F06A95E2F7822B81BB0895411137C08130A4
S113010091F028F08230D9F0833029F108952AB390
S113011081E090E002C0880F991F6A95E2F780950C
S113012082238ABB089527B381E090E002C0880F40
S1130130991F6A95E2F78095822387BB089524B3BB
S113014081E090E002C0880F991F6A95E2F78095DC
S1130150822384BB089521B381E090E002C0880F1C
S1130160991F6A95E2F78095822381BB08958430B4
S113017008F072C0683008F06FC04130A1F58130DA
S113018089F028F08230C9F0833011F108952BB33F
S113019081E090E002C0880F991F6A95E2F7822BF4
S11301A08BBB089528B381E090E002C0880F991FAB
S11301B06A95E2F7822B88BB089525B381E090E02D
S11301C002C0880F991F6A95E2F7822B85BB0895B8
S11301D022B381E090E002C0880F991F6A95E2F78C
S11301E0822B82BB0895411137C0813091F028F0F1
S11301F08230D9F0833029F108952BB381E090E067
S113020002C0880F991F6A95E2F7809582238BBB01
S1130210089528B381E090E002C0880F991F6A9581
S1130220E2F78095822388BB089525B381E090E0AE
S113023002C0880F991F6A95E2F78095822385BBD7
S1130240089522B381E090E002C0880F991F6A9557
S1130250E2F78095822382BB0895843018F56130DB
S113026081F4813041F028F0823039F0833039F064
S113027008956ABB089567BB089564BB089561BB84
S1130280089561110FC0813041F028F0823039F0B7
S1130290833039F008956ABB089567BB089564BB41
S11302A0089561BB0895843078F4813041F028F0DA
S11302B0823039F0833039F008956BBB089568BB00
S11302C0089565BB089562BB0895CF93C82F40E09D
S11302D064E082E00E94B70040E065E082E00E94B2
S11302E0B70041E066E082E00E94B7008FE19EE43F
S11302F00197F1F700C000006C2F607F83E00E943B
S1130300530140E066E082E00E94B7008FE19EE482
S11303100197F1F700C0000041E066E082E00E942E
S1130320B7008FE19EE40197F1F700C000006C2F45
S11303306295607F83E00E94530140E066E082E0C2
S11303400E94B7008FE19EE40197F1F700C000001E
S1130350CF9108952FEF81EE94E02150804090409A
S1130360E1F700C0000083E30E94650182E30E947C
S1130370650188E20E9465018CE00E94650181E0CC
S11303800E94650186E00E94650182E00E94650189
S11303900895CF93C82F41E064E082E00E94B70043
S11303A040E065E082E00E94B70041E066E082E060
S11303B00E94B7008FE19EE40197F1F700C00000AE
S11303C06C2F607F83E00E94530140E066E082E08E
S11303D00E94B7008FE19EE40197F1F700C000008E
S11303E041E066E082E00E94B7006C2F6295607F76
S11303F083E00E9453018FE19EE40197F1F700C06E
S1130400000040E066E082E00E94B7008FE19EE4D5
S11304100197F1F700C00000CF9108958DB1806479
S11304208DB98DB18F7E8DB908958EB18E7F8EB9C1
S11304308DB18E7F8DB98DB18D7F8DB98DB18B7F4F
S11304408DB98DB1877F8DB98DB18F7D8DB90895AB
S1130450779BFECF8FB108950E940E020E94150271
S113046040E065E081E00E94410041E066E081E017
S11304700E94410040E067E081E00E94410040E0CA
S113048064E081E00E94410041E060E082E00E947B
S1130490410041E064E082E00E94410041E065E007
S11304A082E00E94410041E066E082E00E94410057
S11304B06FEF83E00E942D010E94AA0140E060E0FA
S11304C082E00E94B7000E942802809360000E948C
S10B04D0C901F4CFF894FFCF39
S10504D83000EE
S9030000FC
