:100000000C942A000C9434000C9434000C943400AA
:100010000C9434000C9434000C9434000C94340090
:100020000C9434000C9434000C9434000C94340080
:100030000C9434000C9434000C9434000C94340070
:100040000C9434000C9434000C9434000C94340060
:100050000C94340011241FBECFE5D8E0DEBFCDBF25
:100060000E9422010C948C010C940000843008F052
:1000700072C0683008F06FC04130A1F5813089F05E
:1000800028F08230C9F0833011F108952AB381E05D
:1000900090E002C0880F991F6A95E2F7822B8ABB15
:1000A000089527B381E090E002C0880F991F6A95F8
:1000B000E2F7822B87BB089524B381E090E002C071
:1000C000880F991F6A95E2F7822B84BB089521B3AC
:1000D00081E090E002C0880F991F6A95E2F7822BB9
:1000E00081BB0895411137C0813091F028F08230F2
:1000F000D9F0833029F108952AB381E090E002C05D
:10010000880F991F6A95E2F7809582238ABB08952C
:1001100027B381E090E002C0880F991F6A95E2F74B
:100120008095822387BB089524B381E090E002C0CC
:10013000880F991F6A95E2F78095822384BB089502
:1001400021B381E090E002C0880F991F6A95E2F721
:100150008095822381BB0895843008F072C0683096
:1001600008F06FC04130A1F5813089F028F082306D
:10017000C9F0833011F108952BB381E090E002C003
:10018000880F991F6A95E2F7822B8BBB089528B3DD
:1001900081E090E002C0880F991F6A95E2F7822BF8
:1001A00088BB089525B381E090E002C0880F991FB5
:1001B0006A95E2F7822B85BB089522B381E090E037
:1001C00002C0880F991F6A95E2F7822B82BB0895BF
:1001D000411137C0813091F028F08230D9F083305E
:1001E00029F108952BB381E090E002C0880F991F98
:1001F0006A95E2F7809582238BBB089528B381E04E
:1002000090E002C0880F991F6A95E2F780958223DB
:1002100088BB089525B381E090E002C0880F991F44
:100220006A95E2F78095822385BB089522B381E029
:1002300090E002C0880F991F6A95E2F780958223AB
:1002400082BB08950E946E010E94750141E065E045
:1002500081E00E94360040E066E081E00E943600C6
:1002600041E067E081E00E94360040E064E081E028
:100270000E94360041E064E081E00E94AC0041E071
:1002800063E081E00E94360040E063E081E00E948C
:10029000AC0041E060E082E00E94360040E060E0B7
:1002A00082E00E94AC002FEF89E698E12150804067
:1002B0009040E1F700C0000081E40E94880141E025
:1002C00060E082E00E94AC002FEF83EC99E02150C7
:1002D00080409040E1F700C00000E0CF8DB1806425
:1002E0008DB98DB180618DB908958EB18E7F8EB933
:1002F0008DB18E7F8DB98DB18D7F8DB98DB18B7F95
:100300008DB98DB1877F8DB98DB18F7D8DB90895F0
:0C0310008FB9779BFECF0895F894FFCFC3
:00000001FF
