:100000000C942A000C9434000C9434000C943400AA
:100010000C9434000C9434000C9434000C94340090
:100020000C9434000C9434000C9434000C94340080
:100030000C9434000C9434000C9434000C94340070
:100040000C9434000C9434000C9434000C94340060
:100050000C94340011241FBECFE5D8E0DEBFCDBF25
:100060000E944A010C94C6010C94000086B180687D
:1000700086B987B1806487B987B1806887B986B14E
:10008000816086B986B1826086B986B1846086B99E
:1000900086B1877F86B986B1806186B9089597B1A8
:1000A0008F71982B97B986B1806486B9349BFECF47
:1000B00086B1806186B984B195B10895843008F025
:1000C00072C0683008F06FC04130A1F5813089F00E
:1000D00028F08230C9F0833011F108952AB381E00D
:1000E00090E002C0880F991F6A95E2F7822B8ABBC5
:1000F000089527B381E090E002C0880F991F6A95A8
:10010000E2F7822B87BB089524B381E090E002C020
:10011000880F991F6A95E2F7822B84BB089521B35B
:1001200081E090E002C0880F991F6A95E2F7822B68
:1001300081BB0895411137C0813091F028F08230A1
:10014000D9F0833029F108952AB381E090E002C00C
:10015000880F991F6A95E2F7809582238ABB0895DC
:1001600027B381E090E002C0880F991F6A95E2F7FB
:100170008095822387BB089524B381E090E002C07C
:10018000880F991F6A95E2F78095822384BB0895B2
:1001900021B381E090E002C0880F991F6A95E2F7D1
:1001A0008095822381BB0895843008F072C0683046
:1001B00008F06FC04130A1F5813089F028F082301D
:1001C000C9F0833011F108952BB381E090E002C0B3
:1001D000880F991F6A95E2F7822B8BBB089528B38D
:1001E00081E090E002C0880F991F6A95E2F7822BA8
:1001F00088BB089525B381E090E002C0880F991F65
:100200006A95E2F7822B85BB089522B381E090E0E6
:1002100002C0880F991F6A95E2F7822B82BB08956E
:10022000411137C0813091F028F08230D9F083300D
:1002300029F108952BB381E090E002C0880F991F47
:100240006A95E2F7809582238BBB089528B381E0FD
:1002500090E002C0880F991F6A95E2F7809582238B
:1002600088BB089525B381E090E002C0880F991FF4
:100270006A95E2F78095822385BB089522B381E0D9
:1002800090E002C0880F991F6A95E2F7809582235B
:1002900082BB08950E94360041E062E082E00E9445
:1002A0005E0041E067E082E00E945E0041E063E0C2
:1002B00083E00E945E0040E062E082E00E94D400A1
:1002C00040E067E082E00E94D40040E063E083E029
:1002D0000E94D40087E00E944F009C01A8E8B3E18F
:1002E0000E94B701DC01CB01072E7AE0B695A795F5
:1002F000979587957A95D1F7702D893E23E09207DF
:1003000080F441E062E082E00E94D40040E067E0D7
:1003100082E00E94D40040E063E083E00E94D400C9
:10032000D9CFBC01695E7340683B7B4080F440E0FC
:1003300062E082E00E94D40041E067E082E00E9437
:10034000D40041E063E083E00E94D400C3CF41E0E9
:1003500062E082E00E94D40040E067E082E00E9418
:10036000D40041E063E083E00E94D400B3CFA29FB9
:10037000B001B39FC001A39F700D811D1124911D79
:10038000B29F700D811D1124911D0895F894FFCF27
:00000001FF
