S00F00004C43445F4E65772E73726563B9
S11300000C942A000C943F000C943F000C943F0085
S11300100C943F000C943F000C943F000C943F0060
S11300200C943F000C943F000C943F000C943F0050
S11300300C943F000C943F000C943F000C943F0040
S11300400C943F000C943F000C943F000C943F0030
S11300500C943F0011241FBECFE5D8E0DEBFCDBF16
S113006010E0A0E6B0E0E0E5F5E002C005900D92F6
S1130070AA36B107D9F70E9474020C94A6020C9414
S11300800000843008F072C0683008F06FC041305E
S1130090A1F5813089F028F08230C9F0833011F164
S11300A008952AB381E090E002C0880F991F6A95F1
S11300B0E2F7822B8ABB089527B381E090E002C067
S11300C0880F991F6A95E2F7822B87BB089524B3A2
S11300D081E090E002C0880F991F6A95E2F7822BB5
S11300E084BB089521B381E090E002C0880F991F7A
S11300F06A95E2F7822B81BB0895411137C08130A4
S113010091F028F08230D9F0833029F108952AB390
S113011081E090E002C0880F991F6A95E2F780950C
S113012082238ABB089527B381E090E002C0880F40
S1130130991F6A95E2F78095822387BB089524B3BB
S113014081E090E002C0880F991F6A95E2F78095DC
S1130150822384BB089521B381E090E002C0880F1C
S1130160991F6A95E2F78095822381BB08958430B4
S113017008F072C0683008F06FC04130A1F58130DA
S113018089F028F08230C9F0833011F108952BB33F
S113019081E090E002C0880F991F6A95E2F7822BF4
S11301A08BBB089528B381E090E002C0880F991FAB
S11301B06A95E2F7822B88BB089525B381E090E02D
S11301C002C0880F991F6A95E2F7822B85BB0895B8
S11301D022B381E090E002C0880F991F6A95E2F78C
S11301E0822B82BB0895411137C0813091F028F0F1
S11301F08230D9F0833029F108952BB381E090E067
S113020002C0880F991F6A95E2F7809582238BBB01
S1130210089528B381E090E002C0880F991F6A9581
S1130220E2F78095822388BB089525B381E090E0AE
S113023002C0880F991F6A95E2F78095822385BBD7
S1130240089522B381E090E002C0880F991F6A9557
S1130250E2F78095822382BB0895843078F481305C
S113026041F028F0823039F0833039F008956BBBC7
S1130270089568BB089565BB089562BB0895CF9344
S1130280C82F40E064E082E00E94B70040E065E0EF
S113029082E00E94B70041E066E082E00E94B7007D
S11302A08FE19EE40197F1F700C000006C2F83E01A
S11302B00E942D0140E066E082E00E94B7008FE1D9
S11302C09EE40197F1F700C00000CF910895CF9309
S11302D0C82F40E064E082E00E94B70040E065E09F
S11302E082E00E94B70041E066E082E00E94B7002D
S11302F08FE19EE40197F1F700C000006C2F607F4E
S1130300636083E00E942D0140E066E082E00E9489
S1130310B7008FE19EE40197F1F700C0000041E0CF
S113032066E082E00E94B7008FE19EE40197F1F756
S113033000C00000CF91089541E064E083E00E9492
S1130340410041E065E083E00E94410041E066E055
S113035083E00E94410041E067E083E00E944100A5
S113036041E064E082E00E94410041E065E082E017
S11303700E94410041E066E082E00E9441002FE7D4
S113038085EB91E0215080409040E1F700C00000EF
S113039082E20E943F0182E20E943F0180EC0E94BF
S11303A03F018FE99FE00197F1F700C0000080E072
S11303B00E94670180EE0E9467018FE99FE0019728
S11303C0F1F700C0000080E00E94670180E10E9414
S11303D067018FE39FE10197F1F700C0000080E01F
S11303E00E94670180E60E9467010895CF93C82F99
S11303F041E064E082E00E94B70040E065E082E012
S11304000E94B70041E066E082E00E94B7008FE1FD
S11304109EE40197F1F700C000006C2F607F6360D9
S113042083E00E942D0140E066E082E00E94B70074
S11304308FE19EE40197F1F700C0000041E066E01F
S113044082E00E94B70090E1C99FB001112463606B
S113045083E00E942D018FE19EE40197F1F700C033
S1130460000040E066E082E00E94B7008FE19EE475
S11304700197F1F700C00000CF9108950F931F93E7
S1130480CF938C01C0E003C00E94F601CF5FF80156
S1130490EC0FF11D80818111F7CFCF911F910F9146
S11304A0089580E10E94670180E00E94670180E274
S11304B00E94F60180E10E94670180E00E946701CA
S11304C0089581E00E94670180E10E9467018FE343
S11304D09FE10197F1F700C0000080E80E946701E6
S11304E080E00E94670108950E949C018DE40E94AF
S11304F0F6018FE60E94F60181E60E94F60180E68D
S113050090E00E943E022FEF89E698E1215080405E
S11305109040E1F700C000000E9451022FEF89E6ED
S113052098E1215080409040E1F700C000008AE744
S11305300E94F6012FEF89E698E121508040904017
S1130540E1F700C000000E946102FFCFF894FFCFE2
S10D05504D4F55535441464100003D
S9030000FC
