:100000000C942A000C948D010C943C000C943C0040
:100010000C943C000C943C000C943C000C943C0070
:100020000C943C000C943C000C943C000C943C0060
:100030000C943C000C943C000C943C000C943C0050
:100040000C943C000C943C000C943C000C943C0040
:100050000C943C0011241FBECFE5D8E0DEBFCDBF1D
:1000600020E0A0E6B0E001C01D92A236B207E1F7A1
:100070000E9447010C94B4010C940000843008F0F5
:1000800072C0683008F06FC04130A1F5813089F04E
:1000900028F08230C9F0833011F108952AB381E04D
:1000A00090E002C0880F991F6A95E2F7822B8ABB05
:1000B000089527B381E090E002C0880F991F6A95E8
:1000C000E2F7822B87BB089524B381E090E002C061
:1000D000880F991F6A95E2F7822B84BB089521B39C
:1000E00081E090E002C0880F991F6A95E2F7822BA9
:1000F00081BB0895411137C0813091F028F08230E2
:10010000D9F0833029F108952AB381E090E002C04C
:10011000880F991F6A95E2F7809582238ABB08951C
:1001200027B381E090E002C0880F991F6A95E2F73B
:100130008095822387BB089524B381E090E002C0BC
:10014000880F991F6A95E2F78095822384BB0895F2
:1001500021B381E090E002C0880F991F6A95E2F711
:100160008095822381BB0895843008F072C0683086
:1001700008F06FC04130A1F5813089F028F082305D
:10018000C9F0833011F108952BB381E090E002C0F3
:10019000880F991F6A95E2F7822B8BBB089528B3CD
:1001A00081E090E002C0880F991F6A95E2F7822BE8
:1001B00088BB089525B381E090E002C0880F991FA5
:1001C0006A95E2F7822B85BB089522B381E090E027
:1001D00002C0880F991F6A95E2F7822B82BB0895AF
:1001E000411137C0813091F028F08230D9F083304E
:1001F00029F108952BB381E090E002C0880F991F88
:100200006A95E2F7809582238BBB089528B381E03D
:1002100090E002C0880F991F6A95E2F780958223CB
:1002200088BB089525B381E090E002C0880F991F34
:100230006A95E2F78095822385BB089522B381E019
:1002400090E002C0880F991F6A95E2F7809582239B
:1002500082BB089541E067E082E00E94B4002FEF86
:1002600083ED90E3215080409040E1F700C0000012
:1002700040E067E082E00E94B4002FEF83ED90E35E
:10028000215080409040E1F700C0000008958AE2CC
:1002900091E00E94880140E062E083E00E943E001D
:1002A00041E062E083E00E94B40041E067E082E068
:1002B0000E943E0041E062E082E00E943E000E9417
:1002C00080010E94840141E062E082E00E94B4006B
:1002D0002FEF83ED90E3215080409040E1F700C084
:1002E000000040E062E082E00E94B4002FEF83ED66
:1002F00090E3215080409040E1F700C00000E3CF40
:100300008BB780648BBF08958FB780688FBF0895C7
:10031000909361008093600008951F920F920FB632
:100320000F9211242F933F934F935F936F937F937B
:100330008F939F93AF93BF93EF93FF93E0916000F0
:10034000F09161000995FF91EF91BF91AF919F915D
:100350008F917F916F915F914F913F912F910F906E
:0C0360000FBE0F901F901895F894FFCF6F
:00000001FF
