:100000000C942A000C9434000C9434000C943400AA
:100010000C9434000C9434000C9434000C94340090
:100020000C9434000C9434000C9434000C94340080
:100030000C9434000C9434000C9434000C94340070
:100040000C9434000C9434000C9434000C94340060
:100050000C94340011241FBECFE5D8E0DEBFCDBF25
:100060000E9436000C9481010C94000061E080E055
:100070000E94350141E061E081E00E94490041E0D9
:1000800061E081E00E94BF0060EF80E00E945B01C0
:10009000F6CF843008F072C0683008F06FC041308D
:1000A000A1F5813089F028F08230C9F0833011F158
:1000B00008952AB381E090E002C0880F991F6A95E5
:1000C000E2F7822B8ABB089527B381E090E002C05B
:1000D000880F991F6A95E2F7822B87BB089524B396
:1000E00081E090E002C0880F991F6A95E2F7822BA9
:1000F00084BB089521B381E090E002C0880F991F6E
:100100006A95E2F7822B81BB0895411137C0813097
:1001100091F028F08230D9F0833029F108952AB384
:1001200081E090E002C0880F991F6A95E2F7809500
:1001300082238ABB089527B381E090E002C0880F34
:10014000991F6A95E2F78095822387BB089524B3AF
:1001500081E090E002C0880F991F6A95E2F78095D0
:10016000822384BB089521B381E090E002C0880F10
:10017000991F6A95E2F78095822381BB08958430A8
:1001800008F072C0683008F06FC04130A1F58130CE
:1001900089F028F08230C9F0833011F108952BB333
:1001A00081E090E002C0880F991F6A95E2F7822BE8
:1001B0008BBB089528B381E090E002C0880F991F9F
:1001C0006A95E2F7822B88BB089525B381E090E021
:1001D00002C0880F991F6A95E2F7822B85BB0895AC
:1001E00022B381E090E002C0880F991F6A95E2F780
:1001F000822B82BB0895411137C0813091F028F0E5
:100200008230D9F0833029F108952BB381E090E05A
:1002100002C0880F991F6A95E2F7809582238BBBF5
:10022000089528B381E090E002C0880F991F6A9575
:10023000E2F78095822388BB089525B381E090E0A2
:1002400002C0880F991F6A95E2F78095822385BBCB
:10025000089522B381E090E002C0880F991F6A954B
:10026000E2F78095822382BB0895843018F56130CF
:1002700081F4813041F028F0823039F0833039F058
:1002800008956ABB089567BB089564BB089561BB78
:10029000089561110FC0813041F028F0823039F0AB
:1002A000833039F008956ABB089567BB089564BB35
:1002B000089561BB0895843018F5613081F4813070
:1002C00041F028F0823039F0833039F008956BBB6B
:1002D000089568BB089565BB089562BB08956111D8
:1002E0000FC0813041F028F0823039F0833039F08E
:1002F00008956BBB089568BB089565BB089562BB04
:060300000895F894FFCF00
:00000001FF
